:020000040800F2
:10000000F06300208D020008952100085B190008AC
:10001000932100089D0E0008F12C0008000000004C
:10002000000000000000000000000000F5010008D2
:1000300047100008000000003902000807260008E9
:10004000A7020008A7020008A7020008A7020008EC
:10005000A7020008A7020008A7020008A7020008DC
:10006000A7020008A7020008A7020008A7020008CC
:10007000A7020008A7020008A7020008A7020008BC
:10008000A7020008A7020008A7020008A7020008AC
:10009000A7020008A7020008A7020008A70200089C
:1000A000A7020008A7020008A7020008A70200088C
:1000B000A7020008A70200086D260008A702000892
:1000C000A7020008A7020008A7020008A70200086C
:1000D000A70200085D28000865290008A70200089B
:1000E000A7020008A7020008A7020008A70200084C
:1000F000A7020008A7020008A7020008A70200083C
:10010000A7020008A7020008A7020008A70200082B
:10011000A7020008A7020008A7020008A70200081B
:10012000A7020008A7020008A7020008A70200080B
:1001300000F002F800F04EF80AA090E8000C8244AB
:100140008344AAF10107DA4501D100F043F8AFF288
:10015000090EBAE80F0013F0010F18BFFB1A43F0A5
:100160000103184724E6000044E60000103A24BFCB
:1001700078C878C1FAD8520724BF30C830C144BF0C
:1001800004680C607047000000230024002500264E
:10019000103A28BF78C1FBD8520728BF30C148BFEA
:1001A0000B607047642900F0DF80752900F0DC8067
:1001B000732900F08083002070471FB500F098FC81
:1001C00004000020002104F0BBFF401C60601FBD44
:1001D00010B510BD00F066FC1146FFF7EEFF02F00F
:1001E000F9FD00F097FC03B4FFF7F2FF03BC02F047
:1001F00087FD0000224B19680868B0E8F00F80F313
:100200000988BFF36F8F4FF0000080F311884EF024
:100210000D0E70470000000006480068006880F37B
:10022000088862B661B6BFF34F8FBFF36F8F00DFF0
:1002300000BF00BF08ED00E0EFF30980BFF36F8F50
:100240000F4B1A6820E9F00F106008B54FF050000E
:1002500080F31188BFF34F8FBFF36F8F04F096F9CF
:100260004FF0000080F31188BDE808401968086865
:10027000B0E8F00F80F30988BFF36F8F704700BFBD
:10028000B0000020EFF30580704700000948804768
:1002900009480047FEE7FEE7FEE7FEE7FEE7FEE768
:1002A000FEE7FEE7FEE7FEE704480549054A064B80
:1002B000704700001D26000831010008F05D002095
:1002C000F0630020F05F0020F05F00207047000026
:1002D0000FB4044910B503AA029800F0F1FA10BC5B
:1002E0005DF814FB940000200FB41CB5084B06AA5F
:1002F0007B4469460090059800F0B3FA044600205C
:10030000694600F0C1FA20461CBC5DF814FB0000F1
:100310009505000070B50C460546012A05D02878E1
:10032000800600D5EA69002302E0012305E05B1C9A
:10033000934202D2E05C0028F9D1A869E618C01AFD
:10034000A861286A184428622846AFF3008004E0B8
:10035000D5E9012114F8010B9047B442F8D328469F
:10036000AFF3008070BD00002DE9F0410646002487
:1003700010687529314616A510D0AFF3008000280B
:1003800002DA404213A507E031688A0701D512A5B9
:1003900002E0490704D511A5012401E0AFF3008074
:1003A00000210A2206F1240709E0B0FBF2FCB0FBB1
:1003B000F2F302FB1C00303078541846491C002828
:1003C000F3D123462A463046BDE8F04100F0EAB9B1
:1003D000000000002D0000002B00000020000000A5
:1003E0002DE9F05F894604464FF0000ADFF874B14A
:1003F000FB44C0F820A02046E1688847002874D05C
:10040000252806D0D4E901219047206A401C2062AB
:10041000F1E700265F462046E16888472028054628
:1004200007DB312D05D2781910F8200C08B10643EE
:10043000F1E7B00701D526F00406C4F81CA0002798
:10044000C4F818A02A2D09D0284602F052FC38B36F
:1004500004EB8708303DC8F8185019E059F8041B20
:10046000204604EB87029161E1688847012F054629
:1004700018D1E069002820DA26F020061DE0D8F81F
:10048000180000EB800005EB40003038C8F8180079
:100490002046E1688847054602F02BFC0028EED193
:1004A000012F0AD02E2D08D12046E16888477F1CF5
:1004B0000546022F46F02006C4DBA069002803DAB7
:1004C000404246F00106A061F00701D026F0100678
:1004D0006C2D0BD0682D09D04C2D39D06A2D35D01C
:1004E000742D35D07A2D33D016E038E0E1682F46F0
:1004F00020468847B842054609D16C2F26D04FF4D4
:100500008060E168064320468847054604E06C2F7A
:100510001AD04FF4807006430DB3A5F1410019289D
:1005200002D8203546F400664A4629462046266011
:100530004E46FFF737FE80B101280BD0F61D26F09E
:10054000070000F1080956E74020E4E78020D8E7DB
:100550000020D6E706F104094DE7284652E7206A55
:10056000BDE8F09F28E3000070B5064600F016F9DC
:100570000468054630460A22002100F0B3F92C60D9
:1005800070BD401ECAB210F8011F8A4202D0002975
:10059000F9D10020704730B505460B462A4613F8BE
:1005A000014B12F8010B08B1A042F8D01CB1002891
:1005B00002D06D1CF1E7284630BD40EA0103024637
:1005C00030B59B0710D14FF0013400E008C208C9D4
:1005D0001D1B9D4315EAC41FF8D013F0FF0102F85C
:1005E000011B0DD01B0AF8E711F8013B002B02F8A4
:1005F000013B05D011F8013B002B02F8013BF3D180
:1006000030BD10B5431C02E010F8011B71B1810729
:10061000FAD14FF0013202C88C1A8C4314EAC2118D
:10062000F9D0C01A0A0603D0C01E10BDC01A10BDF2
:100630000A0401D0801E10BD0902FCD0401E10BD6E
:10064000032A40F2308010F0030C00F0158011F8FE
:10065000013BBCF1020F624498BF11F801CB00F8D6
:10066000013B38BF11F8013BA2F1040298BF00F82A
:1006700001CB38BF00F8013B11F0030300F02580E7
:10068000083AC0F0088051F8043B083A51F804CB0E
:10069000A0E80810F5E7121D5CBF51F8043B40F8D4
:1006A000043BAFF30080D20724BF11F8013B11F8DF
:1006B00001CB48BF11F8012B24BF00F8013B00F823
:1006C00001CB48BF00F8012B704710B5203AC0F0AD
:1006D0000B80B1E81850203AA0E81850B1E8185043
:1006E000A0E81850BFF4F5AF5FEA027C24BFB1E880
:1006F0001850A0E8185044BF18C918C0BDE81040F1
:100700005FEA827C24BF51F8043B40F8043B08BFF9
:100710007047D20728BF31F8023B48BF11F8012BC0
:1007200028BF20F8023B48BF00F8012B704702F0B9
:10073000FF0343EA032242EA024200F00DB910B57A
:10074000044610F0030F08BF11F0030F40F01580AE
:100750004FF0013E121FC0F20E8051F8043BA3EB94
:100760000E0C2CEA030C1CEACE1C08BF40F8043B1C
:10077000F0D0A1F1040102F10402521E08DB11F8CD
:10078000013B002B00F8013BF7D1114600F0E2F8E5
:10079000204610BD7047704770477047004870474B
:1007A0008C5D00202DE9F0470D469946924604469F
:1007B00000F124080168880604D5E06921F01001E1
:1007C000216000E00120A84201DD471B00E0002776
:1007D000A1697A1902EB0900081AA0612078C00605
:1007E00002D42046AFF30080002608E0D4E90121BE
:1007F0001AF806009047206A401C761C20624E457D
:10080000F4DB2078C0060AD52046AFF3008006E06E
:10081000D4E9012130209047206A401C2062381E14
:10082000A7F10107F4DC07E0D4E9012118F805007D
:100830009047206A401C2062281EA5F10105F3DCC8
:100840002046AFF300802078000602D50220BDE8E4
:10085000F0870120FBE7000001694A1C026108786B
:10086000704700B58FB0CDE90131002105910549F0
:100870007944CDE9031011466846FFF7B1FD0FB08A
:1008800000BD0000E5FFFFFF0A6802F8010B0A60E7
:10089000704710B5436913B1AFF3008001E0FFF773
:1008A00039FD012010BD127800F124010A700022E8
:1008B0004A700122EDE711684FF0FF32E9E70000CE
:1008C000074B70B50D467B44FFF7CBFF0446284627
:1008D00000F0BDF810B14FF0FF3070BD204670BD84
:1008E000F32400002DE9F04791460F468046044668
:1008F000002614F8015B2DB100F052F80068405D4D
:10090000C007F6D12B2D02D02D2D18D0641E4A46DB
:100910003946204600F04CF827B13968A14201D190
:10092000C7F800804FF0020471050BD54042002843
:1009300003DDFFF733FF0460A007BDE8F08746F44E
:100940008066E4E70028F8DAFFF728FF04606FF01C
:100950000040F2E74FF000020429C0F0128010F0CE
:10096000030C00F07A80CCF1040CBCF1020F18BF2C
:1009700000F8012BA8BF20F8022BA1EB0C0100F01E
:100980006CB85FEAC17C24BF00F8012B00F8012B92
:1009900048BF00F8012B7047004870478C5D00206D
:1009A00010B500F0A5F8001D10BD00BF9547000070
:1009B0002DE9F05F824615468B4600270AF10104B7
:1009C000B9460078302801D09DB113E014F8010B2E
:1009D0000127782803D0582801D045B10AE00DB18D
:1009E000102D07D1002714F8010B102502E008256F
:1009F00000E00A250026B0460EE005FB080005FBD6
:100A000006F101271FFA80F801EB1046B6F5803F8A
:100A100000D3B94614F8010B294600F06DF8002800
:100A2000EBDABBF1000F05D00FB1641E00E05446B5
:100A3000CBF80040B9F1000F06D0FFF7AFFE02215E
:100A40000160C81EBDE8F09F48EA0640FAE7007B57
:100A500000F0800070474FF0000200B51346944646
:100A60009646203922BFA0E80C50A0E80C50B1F106
:100A70002001BFF4F7AF090728BFA0E80C5048BF1A
:100A80000CC05DF804EB890028BF40F8042B08BFB8
:100A9000704748BF20F8022B11F0804F18BF00F8B4
:100AA000012B70477546FFF777FFAE460500694694
:100AB000534620F00700854618B020B5FFF7F4FB39
:100AC000BDE820404FF000064FF000074FF000084F
:100AD0004FF0000B21F00701AC46ACE8C009ACE8D0
:100AE000C009ACE8C009ACE8C0098D4670470000F9
:100AF00000487047AC5D00203A2800D2303820F022
:100B00002002412A01D3A2F13700884201D34FF0DD
:100B1000FF30704710B50446AFF300802046BDE8B3
:100B20001040FFF760BB00004FF0013C50F8042B71
:100B300051F8043B9A4221D1A2EB0C03934313EAF0
:100B4000CC1317D150F8042B51F8043B9A4215D11D
:100B5000A2EB0C03934313EACC130BD150F8042BF4
:100B600051F8043B9A4209D1A2EB0C03934313EAD8
:100B7000CC13DBD04FF00000704700BFD01A01BA91
:100B8000B1FA81F101F0180122FA01F0CB40C1F174
:100B90002001DBB2C0B2C01A2CFA01F3D11A914382
:100BA00011EAC311E6D17047002904D0816841F0F1
:100BB000010181607047816821F001018160704707
:100BC00010B5154988420AD144150121204601F08B
:100BD0007BFB2046BDE81040002101F075BB0F49AA
:100BE00088420AD104150121204601F06DFB204600
:100BF000BDE81040002101F067BB094988420AD1D5
:100C00000121CC03204601F05FFB2046BDE81040E7
:100C1000002101F059BB10BD002401400028014013
:100C2000003C0140014600208968490700D50120A9
:100C30007047C06C80B270470246002012680A42BA
:100C400000D001207047014600208968090700D5BF
:100C50000120704710B542680E4B1A400C790B68A2
:100C600042EA04221343436082680B4B1A40D1E9E5
:100C7000024323434C7942EA440213438360C26A2D
:100C800022F47002097C491EC9B242EA0151C162D4
:100C900010BD0000FFFEF0FFFDF7F1FF70B5072665
:100CA00009290AD9C568A1F10A0404EB4404A64045
:100CB000B543A3401D43C56007E0056901EB41044E
:100CC000A640B543A3401D4305611F23072A09D24F
:100CD000446B521E02EB820293409C4391400C43B2
:100CE000446370BD0D2A09D2046BD21F02EB82024D
:100CF00093409C4391400C43046370BDC46A0D3A19
:100D000002EB820293409C4391400C43C46270BD4D
:100D1000816841F0080181607047002904D0816832
:100D200041F4A00181607047816821F4A0018160D5
:100D30007047816841F004018160704706490028CE
:100D400004D0086840F4000008607047086820F488
:100D500000000860704700000824014010B586B00C
:100D600001214FF4017001F0A1FA4FF4004001F0AD
:100D700069FA174C2046FFF723FF002101918DF8F7
:100D800008108DF809104FF460220392049101219C
:100D90008DF8141001A92046FFF75CFF0120FFF732
:100DA000CDFF01212046FFF7FFFE2046FFF7B0FFF1
:100DB0002046FFF748FF0028FAD12046FFF7B9FF89
:100DC0002046FFF72FFF0028FAD106B010BD000023
:100DD0000024014010B586B001214FF4816001F07C
:100DE00065FA4FF4004001F02DFA174C2046FFF74A
:100DF000E7FE002101918DF808108DF809104FF4DD
:100E000060220392049101218DF8141001A920465B
:100E1000FFF720FF0120FFF791FF01212046FFF798
:100E2000C3FE2046FFF774FF2046FFF70CFF0028A3
:100E3000FAD12046FFF77DFF2046FFF7F3FE00289A
:100E4000FAD106B010BD00000028014008B501210C
:100E5000042001F02BFA1020ADF8000000208DF8DE
:100E600003006946024800F0CFFCFFF777FF08BD9A
:100E70000008014008B50121042001F017FA022002
:100E8000ADF8000000208DF803006946024800F02C
:100E9000BBFCFFF79FFF08BD00080140FEE7000014
:100EA00038B50121082001F001FA0120ADF8000059
:100EB00010208DF8030003208DF80200044C6946D1
:100EC000204600F0A1FC0121204600F0F9FC38BDCD
:100ED000000C014008B50120ADF8000048208DF855
:100EE00003006946014800F08FFC08BD000C01407A
:100EF00008B50120ADF8000010208DF80300032094
:100F00008DF802006946024800F07EFC08BD000032
:100F1000000C014001684FF6FE7211400160002193
:100F2000016041608160C1603649364A08399042AB
:100F300004D1486840F00F0048607047314A1432CD
:100F4000904204D1486840F0F000486070472D4A54
:100F50002832904204D1486840F47060486070477D
:100F6000284A3C32904204D1486840F470404860BE
:100F70007047244A5032904204D1486840F47020AF
:100F8000486070471F4A6432904204D1486840F478
:100F90007000486070471B4A7832904204D148681C
:100FA00040F0706048607047174A111F904204D1AA
:100FB000086840F00F0008607047134A14329042EE
:100FC00004D1086840F0F000086070470E4A2832EB
:100FD000904204D1086840F47060086070470A4A83
:100FE0003C32904204D1086840F470400860704779
:100FF000054A50329042FAD1086840F470200860E7
:1010000070470000080002400804024030B5026842
:1010100047F6F0739A430C6A8B682343D1E9044581
:101020002C4323438C692343CC6923434C6A2343D9
:101030008C6A234313430360CA6842600A68826073
:101040004968C16030BD704700B5A5B01248D0E90D
:1010500002120069CDE90212049010A000904FF630
:10106000FF734FF478421821002000F0A3FC4FF4E6
:101070009672032102A800F013FA0D4B0D4A0EA13F
:1010800005A8FFF731F940F6B83211A105A800F024
:10109000EDF925B000BD0000FCE60008436F6E6E60
:1010A0006563743257494649202020200000000023
:1010B000580000203800002041542B43574A41502B
:1010C0003D222573222C222573220D0A00000000E8
:1010D0005749464920434F4E4E454354454400002E
:1010E00010B54FF49664204601F030FE06A000F0E3
:1010F000EBF9204601F02AFE04A000F0E5F9A0106B
:1011000001F024FE012010BD2B2B2B0041540D0AB1
:1011100000000000F8B54FF6FF75284600F032FCDD
:1011200028A14FF4784600912B4632461821002022
:1011300000F040FCFFF7D4FF4FF496773A4625A124
:1011400025A000F093F9FFF77FFF02002549264B09
:101150004FF000044FF001001DD008701C7023A058
:1011600000902B4632461821002000F023FC3A461E
:1011700018A122A000F07AF9C82216A129A000F037
:1011800075F9C82001F0E2FDBDE8F840C82229A1A8
:1011900029A000F06BB90C7018702BA000902B46A2
:1011A00032461821002000F005FC4FF4FA622BA112
:1011B0002CA000F05BF900F013FABDE8F84000F055
:1011C00073BA0000496E69745749464920202020AF
:1011D000202000004F4B000041542B4357514150F9
:1011E0000D0A000036000020A200002053544120C8
:1011F0004F4B2020202020202020000041542B4352
:10120000495053544152543D22544350222C2231D0
:1012100039322E3136382E342E31222C38303830B7
:101220000D0A000041542B4349504D4F44453D3178
:101230000D0A00003E00000041542B434950534525
:101240004E440D0A000000004E6F574946492C528B
:101250005354666F72415020000000007265616453
:101260007900000041542B5253540D0A0000000035
:101270002DE9F04781464EA14846FFF78CF94E4DC7
:10128000012410B12C70BDE8F0874CA14846FFF74F
:1012900082F9002608B12E70F5E74BA14846FFF70A
:1012A0007AF94B4D08B12C70EDE74AA14846FFF79B
:1012B00072F908B12E70E6E748A14846FFF76BF9CE
:1012C00068B146A14846FFF766F90028DBD00B302D
:1012D000FFF74AF96428D6D843490870D3E743A1F9
:1012E0004846FFF758F9454D20B945A14846FFF754
:1012F00052F970B12C7046A000F0E6F8C82001F059
:1013000025FD47A000F0E0F8BDE8F047C82001F057
:101310001DBD47A14846FFF73EF920B949A14846FF
:10132000FFF739F920B12E70BDE8F047FFF7D8BEBE
:1013300048A14846FFF72FF90028A4D047A1484606
:10134000FFF729F900289ED042A14846FFF723F96C
:10135000871D42A14846FFF71EF900F104083FA18E
:101360004846FFF718F9401EC51B23214046FFF7EA
:1013700008F910B1A0EB080403E04046FFF741F97B
:101380000446002D88DD202D86D2002C84DD202C03
:101390008AD22A4639463348FFF7D1F931484655B3
:1013A000224641463048FFF7CAF92F4806556AE7FA
:1013B000234155544F23000034000020234D414E5B
:1013C00055414C2300000000234F50454E230000A0
:1013D0003500002023434C4F5345230023544852EB
:1013E0004553484F4C443D00370000202B53544197
:1013F0005F434F4E4E4543544544000036000020A5
:101400005749464920434F4E4E45435445440000FA
:1014100041542B4349504D4F44453D310D0A000086
:1014200041542B43495053454E440D0A00000000DF
:101430002B5354415F444953434F4E4E454354450B
:10144000440000005749464920444953434F4E4EFB
:101450004543540023535349443D00005057443DF5
:1014600000000000380000205800002070B50D4634
:10147000144601F019FB204601F068FC2946064895
:10148000FFF789F80549002210B10A80012070BDDC
:101490000A80002070BD0000400600209800002057
:1014A0002DE9F04105460E461746002406E055F8A2
:1014B00024003A4603A1FFF7D9FF641CB442F6DBCF
:1014C000BDE8F0814F4B000010B590B004462046B7
:1014D000FFF797F8024609A16846FEF705FFC82204
:1014E0000BA16846FFF7C2FF002805D0204601F097
:1014F000DBFA322001F02AFC10B010BD41542B431E
:10150000495053454E443D302C25640D0A000000DF
:101510003E00000070B598B0224E00235A1E1946B6
:10152000306803F001F9204DAC1F012812D11F488B
:101530008178A970C178E97001782970417961706A
:10154000017AA170C088A08000231A46194630682D
:1015500003F010FA16480078002821D01548A28818
:1015600003781548007808B1012000E000201349F5
:10157000097809B1012100E00021CDE90532CDE96A
:101580000310A17862782878CDE901210090EB78EA
:10159000AA780BA108A8FEF7A7FE08A8FFF794FFFA
:1015A00018B070BD1C000020A80000206C010020B5
:1015B00036000020370000203500002034000020D5
:1015C0002325642E25642D25642D25642D25642D69
:1015D00025642D25642D25642D2575230A00000022
:1015E00030B5A5B01748D0E90512C069CDE902129F
:1015F00004904FF49672032102A8FFF751FF12A046
:101600004FF6FF744FF47845009023462A46182180
:10161000002000F0CFF910A312A216A105A8FEF732
:1016200063FE40F6B8321AA105A8FFF71FFF19A004
:10163000009023462A461821002000F0BBF925B06F
:1016400030BD0000FCE6000853657474696E6741A4
:1016500050202020202020003037323130373231E6
:1016600000000000455350383236365F41505F303D
:101670003732310041542B43575341503D2225739B
:10168000222C222573222C352C330D0A0000000059
:101690004F4B00004150204F4B2020202020202085
:1016A00020202020000000001CB5054803C8CDE91B
:1016B00000014FF4967202216846FFF7F1FE1CBD4F
:1016C000FCE6000870B505464FF43026304600F0C1
:1016D0006DF8042811D1094C206940F00200206106
:1016E0006561206940F040002061304600F05EF8FE
:1016F000216941F6FD721140216170BD0020024058
:1017000004200849CA68D20701D001207047CA687E
:10171000520701D502207047C968C906FBD50320CE
:1017200070470000002002400248016941F080013A
:1017300001617047002002402DE9F84105460E4640
:10174000002000904FF40057384600F02FF804288E
:101750000FD10F4C206940F0010020612E80B84667
:10176000404600F023F8BF1E042804D02169394008
:101770002161BDE8F881AD1C00950099300C08800E
:10178000404600F013F8216939402161F1E700007B
:10179000002002400348024941600349416070470C
:1017A0002301674500200240AB89EFCD00B5034619
:1017B000FFF7A6FF02E0FFF7A3FF5B1E012801D1A0
:1017C000002BF8D1002B00D1052000BD0149482293
:1017D000FEF77BBF00F8070870B50646FFF7DAFF93
:1017E000084D2846FFF76EFF002405EB840056F8ED
:1017F0002410FFF7A1FF641C122CF6D3BDE8704043
:10180000FFF792BF00F807082DE9F0410022CC78DD
:1018100004F00F03E40601D58C7823430C784FF0D5
:101820000F0714F0FF0F4FF0010C1CD005680CFAE5
:1018300002F40E882640A64211D1960007FA06F857
:1018400025EA080503FA06F848EA0505CE78282EA9
:1018500002D0482E02D002E0446100E00461521C34
:10186000082AE4D305600A88FF2A1ED945680022A9
:1018700002F108060CFA06F40E882640A64210D1A2
:10188000960007FA06F825EA080503FA06F848EA7A
:101890000505CE78282E00D14461CE78482E00D19F
:1018A0000461521C082AE3D34560BDE8F08102467A
:1018B000002092680A4200D00120704741617047C1
:1018C0000161704710B50B4C0146072301222046E9
:1018D000FFF7E4F901212046FFF71FFA0221204615
:1018E000FFF7AAF90028F9D02046BDE81040FFF71D
:1018F000A0B900000024014010B50B4C014607239D
:1019000001222046FFF7CAF901212046FFF705FA18
:1019100002212046FFF790F90028F9D02046BDE8C3
:101920001040FFF786B90000002801402DE9F04182
:1019300007460E460025002408E03846FFF7C2FFA0
:101940000544052001F002FA641CE4B2B442F4D369
:10195000B5FBF6F080B2BDE8F081FEE708B50121E5
:10196000102000F0A3FC4FF44070ADF800004820B8
:101970008DF8030069460248FFF746FF08BD0000E6
:101980000010014070B506467F2300211A46084624
:1019900000F0F6FA2C2000F059FB00250024304618
:1019A00000F042FB641C802CF9D36D1C802DF5D314
:1019B00070BD00002DE9FF4F0446DDF834800F466E
:1019C00093469A4600949AE0802837D20D2805D095
:1019D000202807D920381FFA80F905E0009C10372D
:1019E000BFB228E04FF000090026002506EB0910E1
:1019F000039046490398095C8020E840014207D0E3
:101A0000B81981B2601980B25A4600F04FF908E067
:101A1000D34506D0B81981B2601980B2524600F0A1
:101A200045F96D1CEDB2082DE3D3761CF6B2102EED
:101A3000DBD30834A4B208F1010860E04FF00009DC
:101A4000334909EB091098F8003011F810209A4238
:101A50004AD101EB40000290407898F8011088428A
:101A600042D100250026029800EB45000190019824
:101A700081788020F040014207D0781981B2A01906
:101A800080B25A4600F012F908E0D34506D0781922
:101A900081B2A01980B2524600F008F9761CF6B265
:101AA000082EE4D300260198C1788020F04001423E
:101AB00008D0781981B2A019083080B25A4600F0D7
:101AC000F5F809E0D34507D0781981B2A01908309C
:101AD00080B2524600F0EAF8761CF6B2082EE2D345
:101AE0006D1CEDB2102DBDD309F101091FFA89F962
:101AF000B9F1320FA4D308F102081034A4B298F857
:101B0000000000287FF460AFBDE8FF8F6CD10008B3
:101B1000DEDE00082DE9FE4F05460E46914698464A
:101B2000DDF830B0B6E0802831D2202803D9203843
:101B30001FFA80FA01E04FF0000A0027002407EBAB
:101B40000A10029057490298095C8020E040014247
:101B500007D0F01981B2281980B24A4600F0A6F8E1
:101B600008E0C14506D0F01981B2281980B242467A
:101B700000F09CF8641CE4B2082CE3D37F1CFFB295
:101B8000102FDBD30BF1010B0835ADB282E0002042
:101B9000009000989BF8003000EB800101EB4010B2
:101BA000414911F810209A4269D101EB400001909F
:101BB00040789BF80110884261D1002400270199E8
:101BC00004EB440001EB000A80209AF80210F84070
:101BD000014207D0301981B2E81980B24A4600F0BC
:101BE00065F808E0C14506D0301981B2E81980B225
:101BF000424600F05BF87F1CFFB2082FE4D30027B9
:101C00009AF803108020F840014208D0301981B2C0
:101C1000E819083080B24A4600F048F809E0C145AA
:101C200007D0301981B2E819083080B2424600F07E
:101C30003DF87F1CFFB2082FE2D300279AF804106A
:101C40008020F840014208D0301981B2E8191030E4
:101C500080B24A4600F02AF809E0C14507D03019A1
:101C600081B2E819103080B2424600F01FF87F1CA4
:101C7000FFB2082FE2D3641CE4B2182C9ED3009864
:101C8000401C80B2009000981B2882D30BF1020BFD
:101C90001835ADB29BF8000000287FF444AFBDE8D2
:101CA000FE8F00006CD1000852E2000810B5144607
:101CB0004A1C93B2421C92B200F062F92046BDE881
:101CC000104000F0B1B9000038B50121082000F043
:101CD000EDFA4FF48070ADF8000010248DF8034049
:101CE00003208DF80200144D69462846FFF78CFD4D
:101CF0006101ADF8001069462846FFF785FD4021D7
:101D0000ADF8001069462846FFF77EFD2021ADF8AA
:101D1000001069462846FFF777FD8021ADF80010D6
:101D200069462846FFF770FDADF800406946284631
:101D3000FFF76AFD38BD0000000C014010B5FFF749
:101D4000C3FF00F00DF9112000F080F9782000F0B9
:101D5000FDFFB12000F07AF9012000F059F92C20A4
:101D600000F056F92D2000F053F9B22000F06EF982
:101D7000012000F04DF92C2000F04AF92D2000F050
:101D800047F9B32000F062F9012000F041F92C205E
:101D900000F03EF92D2000F03BF9012000F038F969
:101DA0002C2000F035F92D2000F032F9B42000F09D
:101DB0004DF9072000F02CF9C02000F047F9A220CF
:101DC00000F026F9022000F023F9842000F020F929
:101DD000C12000F03BF9C52000F01AF9C22000F044
:101DE00035F90A2000F014F9002000F011F9C320A1
:101DF00000F02CF98A2000F00BF92A2000F008F9F5
:101E0000C42000F023F98A2000F002F9EE2000F04F
:101E1000FFF8C52000F01AF90E2000F0F9F836207E
:101E200000F014F9C82000F0F3F8E02000F00EF9FB
:101E30000F2000F0EDF81A2000F0EAF80F2000F073
:101E4000E7F8182000F0E4F82F2000F0E1F828204F
:101E500000F0DEF8202000F0DBF8222000F0D8F8B7
:101E60001F2000F0D5F81B2000F0D2F8232000F04E
:101E7000CFF8372000F0CCF8002000F0C9F8072098
:101E800000F0C6F8022000F0C3F8102000F0C0F8FF
:101E9000E12000F0DBF80F2000F0BAF81B2000F082
:101EA000B7F80F2000F0B4F8172000F0B1F8332095
:101EB00000F0AEF82C2000F0ABF8292000F0A8F8D4
:101EC0002E2000F0A5F8302000F0A2F8302000F01D
:101ED0009FF8392000F09CF83F2000F099F800208E
:101EE00000F096F8072000F093F8032000F090F837
:101EF000102000F08DF82A2000F0A8F8002000F053
:101F000087F8002000F084F8002000F081F87F209E
:101F100000F07EF82B2000F099F8002000F078F80F
:101F2000002000F075F8002000F072F89F2000F00B
:101F30006FF8F02000F08AF8012000F069F8F62030
:101F400000F084F8002000F063F83A2000F07EF8FA
:101F5000052000F05DF8BDE81040292000F076B8BB
:101F600010B5064C00202060642000F0EFFE012038
:101F70002060BDE81040322000F0E8BE9881214288
:101F8000F0B505460F4614461E462A2000F05EF8BE
:101F9000002000F03DF8AD1CE8B200F039F8002058
:101FA00000F036F8A41CE0B200F032F82B2000F06C
:101FB0004DF8002000F02CF8FF1CF8B200F028F8D3
:101FC000002000F025F8F61CF0B200F021F8BDE882
:101FD000F0402C2000F03AB8F0B51646059D1F469B
:101FE000CA19521E93B28219521E92B2FFF7C8FF4D
:101FF00000247E4309E015F8141005EB44004078F6
:1020000041EA002000F010F8641CA642F3DCF0BDA9
:1020100030B5044C0021A1600125256000F036FA9E
:10202000A56030BD9481214270B50546064C002064
:10203000A06001262660280A00F028FAE8B200F025
:1020400025FAA66070BD00009481214210B5044CB1
:102050000021A160216000F019FA0120A06010BDEC
:102060009481214208B50121042000F01FF94FF4AA
:102070008070ADF8000010208DF8030003208DF86B
:10208000020069460348FFF7BFFB034900200860D0
:1020900008BD000000080140A001214270B51348AE
:1020A000FFF794FB114C4FF0A53604F1240520688E
:1020B000B0420BD00EA1201DFEF77FFA0FA12846DB
:1020C000FEF77BFA322084F844002660211D0E487A
:1020D000FEF773FA0C4829462030FEF76EFA0A49DB
:1020E00094F84400491E087070BD000024010020CF
:1020F000455350383236365F41500000333231316B
:1021000033383231383300003800002070B50024F5
:102110000A210420FFF70AFC28B140F6FF7188422B
:1021200004D3002070BD47F2305070BD0F4B33F820
:10213000241003EB84025588621C164633F82220D3
:1021400003EB8606768888420AD3904208D8731B30
:10215000401A4343501A93FBF0F0284480B270BDFC
:10216000641C142CE3DB002070BD0000A8E600080E
:1021700010B50A210420FFF7D9FBB0F5805F01D329
:1021800040F6FF702821B0FBF1F0C0F16400C0B24E
:1021900010BDFEE77047000070B50F23C27801261E
:1021A0000178002A1ED0144A126802F4E062C2F5D7
:1021B000E062120AC2F10404D3404578A540827857
:1021C0001A402A43120101F1E02181F8002400782D
:1021D00000F01F018E404009800000F1E020C0F8AF
:1021E000006170BD01F01F0086404809800000F1C9
:1021F000E020C0F8806170BD0CED00E002490843AA
:1022000002490860704700000000FA050CED00E08C
:1022100038B50121082000F049F80220ADF800008F
:1022200010208DF8030003208DF80200044C69464D
:102230002046FFF7E9FA02212046FFF741FB38BDAF
:10224000000C0140034A516821F4404101435160B0
:102250007047000000100240054A002903D0516970
:1022600001435161704751698143516170470000DA
:1022700000100240054A002903D0D1690143D16111
:102280007047D1698143D16170470000001002405E
:10229000054A002903D01169014311617047116992
:1022A000814311617047000000100240054A002977
:1022B00003D09169014391617047916981439161B4
:1022C0007047000000100240054A002903D0D16881
:1022D0000143D1607047D1688143D16070470000ED
:1022E0000010024010B5264A516801F00C01254B40
:1022F000002927D0042927D0082927D00360516856
:1023000001F0F0010909204B5C5C0168E14041608B
:10231000546804F4E064240A1C5D21FA04F4846027
:10232000546804F46054E40A1B5DD940C1605268EB
:1023300002F44042920B144B1B1F9A5CB1FBF2F16A
:10234000016110BD0360DAE70360D8E7516801F46A
:102350007011536803F48033022404EB914133B1CC
:1023600053689B0307D5094B59430160C7E7074BE7
:1023700059430160C3E7034B59430160BFE70000C5
:102380000010024000127A007C00002000093D008D
:102390002DE9F04100250024144F01260121384683
:1023A000FFF785FA0028F9D0282000F0EBFC012186
:1023B0003846FFF77CFA01280BD0C4F1070006FA73
:1023C00000F08543641CE4B2082CE7D32846BDE83E
:1023D000F08101213846FFF76AFA0128F9D0C4F1EB
:1023E000070006FA00F0C0B20543EBE7000C01401D
:1023F00070B50446FEF77CFD234D01212846FFF70A
:102400005DFA122000F0A2FC01212846FFF758FADD
:102410001E2000F0B7FCFEF75DFD01212846FFF706
:1024200046FA08B1002070BD01212846FFF73FFAA7
:102430000028F9D001212846FFF739FA0128F9D000
:10244000FFF7A6FF2070FFF7A3FF6070FFF7A0FF64
:10245000A070FFF79DFFE070FFF79AFF2071FEF775
:1024600047FD01212846FFF72BFA20786178E278B2
:102470000844A178114408442179884201D10120FF
:1024800070BD002070BD0000000C014030B5082177
:1024900000240A4A0123050602D5C2F8A43101E04E
:1024A000C2F8A441C2F8A041C2F8A0314006000E13
:1024B000491EC9B20029EED130BD00000080214282
:1024C00010B50C484FF0A53101600B49097880F830
:1024D00044100949001D491CFEF76FF806490548DC
:1024E00021312430FEF769F8BDE810400148FFF7BC
:1024F00073B900002401002037000020AFF30080F2
:102500000CB50022019200922748016841F4803105
:1025100001604FF4A063016801F40031009101995A
:10252000491C0191009911B901999942F3D10168AF
:10253000890302D50121009100E000920099012950
:1025400030D11A490A6842F010020A600A6822F083
:1025500003020A600A6842F002020A6041684160B0
:1025600041684160416841F480614160416821F403
:102570007C114160416841F4E8114160016841F01B
:102580008071016001688901FCD5416821F0030177
:102590004160416841F0020141604168C1F381013D
:1025A0000229FAD10CBD00000010024000200240B8
:1025B00070B5002500240120FFF79EF90544052091
:1025C00000F0C4FB641CE4B20A2CF4D30A20B5FB6F
:1025D000F0F04FF47A61884200D908462821B0FB18
:1025E000F1F0C0F16400C0B270BD4FF0E0210428EA
:1025F00004D0086920F0040008617047086940F0C1
:1026000004000861704710B502F06AFB012803D08E
:10261000BDE8104002F034B810BD000010B50F48FE
:10262000016841F00101016041680D4A11404160BB
:1026300001680C4A11400160016821F480210160A9
:10264000416821F4FE0141604FF41F018160FFF7F2
:1026500055FF05494FF00060086010BD00100240B2
:102660000000FFF8FFFFF6FE08ED00E010B50B4C90
:102670000121204600F069F800280DD008480188A3
:1026800041F4004101800121204600F04FF8BDE8EF
:102690001040002000F032B810BD000000080040DB
:1026A000980000207FB504460D4601210420FFF765
:1026B000E1FDADF80440ADF800500020ADF8060093
:1026C000ADF802000C4C6946204600F057F8012294
:1026D0001146204600F045F81E208DF80C00012020
:1026E0008DF80D0002218DF80E108DF80F0003A853
:1026F000FFF752FD7FBD00000008004010B50A4AF8
:1027000000280AD014460021204600F034F8204664
:10271000BDE81040012100F00CB8BDE810400021D8
:10272000104600F006B8000000080040C9430182CE
:102730007047002904D0018841F0010101807047F1
:10274000018821F001010180704702460020138AB0
:102750000B4092890A40002B02D0002A00D00120B1
:102760007047002A03D082890A4382817047828998
:102770008A438281704781847047000030B50288A7
:102780001B4C1C4DA0420DD0A8420BD0B0F1804F85
:1027900008D0194B984205D0184B984202D0184BDC
:1027A000984203D122F070034A881A43154B98428D
:1027B00006D0154B984203D022F44073CA881A43BE
:1027C00002808A8882850A880285A0420AD0A842AF
:1027D00008D00E4A904205D00D4A904202D00D4AD0
:1027E000904201D1097A01860121818230BD000029
:1027F000002C01400034014000040040000800406B
:10280000000C004000100040001400400040014057
:10281000004401400048014070B58CB006460C46AB
:10282000154601210846FFF717FD3046FEF772FBFB
:1028300001940295102003900021049105918020BD
:10284000069007910891099140010A900B9101A906
:102850003046FEF7DBFB0CB070BD000070B5164CC7
:1028600040F22551204600F0A2F900280ED0204663
:1028700000F036FAC1B2114A1088030406D44404A9
:102880004FF0000307D50A2901D0138070BD40F432
:102890000040108070BD0D290AD0094DC0F30D0411
:1028A0002955401C80B21080C728F3D9138070BD11
:1028B00040F48040108070BD00380140900000203E
:1028C0007601002070B586B00546012144F204006F
:1028D000FFF7ECFC4FF40070ADF8140003248DF802
:1028E000164018218DF817101C4E05A93046FEF72A
:1028F0008BFF3115ADF8141004218DF8171005A9C0
:102900003046FEF781FF25208DF800008DF801404C
:102910008DF8024001208DF803006846FFF73CFC6B
:1029200001950020ADF80800ADF80A00ADF80C00E4
:10293000ADF810000C20ADF80E00094C01A920469E
:1029400000F070F9012240F22551204600F04FF9C5
:102950000121204600F0BCF806B070BD000801401F
:102960000038014070B5124C40F22551204600F06D
:102970001EF9002816D0204600F0B2F9C5B20D4C61
:102980002088B0F5806F0ED200210B48FFF7F3FED0
:10299000208810B90120FFF7B1FE2088411C21805A
:1029A00006490D5470BD40F40040208070BD000009
:1029B000004400409800002000080040400600202D
:1029C0002DE9F04186B0044601210420FFF76EFC9A
:1029D00001214804FFF74EFC2E4F384600F08EF8D8
:1029E0000426ADF8106003258DF8125018208DF8DC
:1029F0001300DFF8A48004A94046FEF705FF082075
:102A0000ADF810008DF8136004A94046FEF7FCFEF7
:102A100000940024ADF80440ADF80640ADF808403D
:102A2000ADF80C400C20ADF80A006946384600F0BD
:102A3000F9F801228021384600F056F8174A391D6E
:102A40001748FFF7E9FE0121384600F041F801225E
:102A500040F22551384600F0CAF826208DF81400BF
:102A600002208DF815008DF8165001208DF8170002
:102A700005A8FFF791FB41F61F4140F2E730FFF751
:102A800011FE084804800020FFF738FE06B0BDE8BC
:102A9000F081000000440040000801404002002096
:102AA000800002409800002070B50446074D09E000
:102AB000641C284600F018F98021284600F070F8C0
:102AC0000028F9D021780029F2D170BD00440040DF
:102AD000002904D0818941F40051818170478189A6
:102AE00021F4005181817047002A03D0828A0A4371
:102AF00082827047828A8A438282704710B5234956
:102B000088420AD101218C032046FFF7DDFB2046D5
:102B1000BDE810400021FFF7D7BB1D4988420AD10C
:102B200001214C042046FFF7B3FB2046BDE81040CE
:102B30000021FFF7ADBB174988420AD101218C045F
:102B40002046FFF7A5FB2046BDE810400021FFF717
:102B50009FBB114988420AD10121CC042046FFF7CE
:102B600097FB2046BDE810400021FFF791BB0B49C1
:102B700088420AD101210C052046FFF789FB204637
:102B8000BDE810400021FFF783BB10BD00380140B5
:102B90000044004000480040004C0040005000400D
:102BA0000246002012880A4200D00120704770B50A
:102BB000002440F66A12C1F3421301F01F050126FA
:102BC00006FA05F2012B0CD0022B0DD0838A13409C
:102BD000090A8E40008830400BB100B10124204624
:102BE00070BD83891340F3E7038A1340F0E710B503
:102BF00040F66A13C1F3421301F01F040121A14002
:102C0000012B07D0022B07D014303AB102680A43D7
:102C1000026010BD0C30F8E71030F6E702688A4316
:102C2000026010BD30B585B004460D46208A4CF6D2
:102C3000FF710840E98801432182A0894EF6F31113
:102C40000840A9882A8911436A8902431143A18156
:102C5000A08A4FF6FF410840A9890143A182684636
:102C6000FFF740FB1D48844201D1039800E0029821
:102C7000A189090408D500EBC00101EB0010296807
:102C80004900B0FBF1F007E000EBC00101EB0010E0
:102C900029688900B0FBF1F06422B0FBF2F1090170
:102CA0000B096FF018056B4300EB8300A3891D042B
:102CB0004FF0320307D503EBC000B0FBF2F000F099
:102CC0000700084306E003EB0010B0FBF2F000F051
:102CD0000F000843208105B030BD000000380140DE
:102CE0008088C0F308007047C1F3080181807047F5
:102CF000FEE730380A2801D20120704700207047D3
:102D00007047000010B50420FFF76FFC0C480D4918
:102D10000D4A0068B0FBF1F31370B0FBF1F14FF412
:102D20007A704143012050804FF0E020026942F068
:102D3000020202614161016941F00101016110BDBE
:102D40002000002040420F008C00002070B5044697
:102D500001F0C6FF01280CD0094D6888844203D3D6
:102D6000B4FBF0F001F058FA6888B4FBF0F100FB16
:102D700011444FF47A706043BDE8704000F002B82F
:102D80008C00002070B500214FF0E0256C690A4AE4
:102D900012785043AB69AA699A42FCD003D2A3EBE4
:102DA0000203194403E0A4EB02063344194413461A
:102DB0008142F0D370BD00008C00002004490A88D5
:102DC0005206FCD5024AC1B2121D118070470000A4
:102DD000003801401CB5FFF795FF4FF44070FFF736
:102DE0000DFA4FF4E1342046FFF76CFD2046FFF763
:102DF000E7FDFFF753F9FEF7A1FF0F490020086038
:102E0000FFF730F9FEF74CF8FEF720F8FEF732F83E
:102E1000FEF7A4FDFFF7FCF9FEF77CF90748012156
:102E2000CDE900100023802205A1084801F028FF09
:102E300001F05AFB00201CBD9081214200000020BF
:102E400073746172745F7461736B0000FD38000805
:102E50002DE9F04104460F46174EF5683068001D15
:102E600001F04CF838B9306890F82C1001208840F7
:102E7000316981433161601C07D137B13168BDE8E8
:102E8000F041091D0D4801F071B82C4430684460D0
:102E9000AC4206D23168B06B091DBDE8F04101F0CB
:102EA0004DB83168706B091D01F048F8B06A844272
:102EB00000D2B462BDE8F081B0000020500D0020C7
:102EC00070B5044601F05EF81D4DA868401CA8606E
:102ED000286810B1686938B10CE02C60A868012836
:102EE00008D100F0A5F905E02868E16AC06A8842C7
:102EF00000D82C60686A401C68626064E06A012146
:102F00002A698140114329610E4900EB800001EBE1
:102F10008000211D01F02AF801F070F8686900288E
:102F20000CD02868E16AC06A884207D206494FF08F
:102F300080500860BFF34F8FBFF36F8F70BD0000EC
:102F4000B0000020800A002004ED00E010B501F080
:102F500019F80E4C2068A0B90D4800F0E1FF0C48AC
:102F6000143000F0DDFF0A48E060143020610022D8
:102F70001021052001F0A6FB206010B105A101F091
:102F800015F9BDE8104001F039B80000EC00002050
:102F9000640D0020546D72510000000070B5124E97
:102FA000124D1CE001F0EAFA306820B1002401F073
:102FB000C9FFA4B901E00124F9E700F0E3FFF068DC
:102FC000C468201D00F09AFFA868401EA8606868C9
:102FD000401E686001F012F8204600F054F868685E
:102FE0000028DFD170BD00003C0D0020B0000020A3
:102FF00030B40B46026C002A0CD0C1681144C16089
:103000004468A14201D30168C160C16830BC184660
:10301000FDF716BB30BC70472DE9F041044617465A
:103020000026A56B226C002A10D0C7B1E068FDF71E
:1030300007FBE168206C091AE1602268914202D224
:103040006168081AE060022F16D017E02068A8B95E
:10305000606801F0CFFE0646002060600EE0A068C8
:10306000FDF7EEFA216CA0680844A0606168884210
:1030700004D32068A06001E005B16D1E6D1CA5633E
:103080003046BDE8F08110B50446206B00F0EAFF41
:103090002046BDE8104000F0E5BF00000749CA68BF
:1030A0001168002904D00021016019B10020704787
:1030B0000121F9E7D068006870470000EC000020AB
:1030C0004FF4A0410F48420706D0C01D20F0070072
:1030D0000C49411AC1F5A0410B4A1060002353600E
:1030E0000144083921F00701103A11604B600B6070
:1030F0000B1A436001604068906050604FF00040E0
:10310000D06070478C0D00201C010020074E4FF04E
:103110008054074DFFF742FF30680128FAD92C6030
:10312000BFF34F8FBFF36F8FF4E70000800A0020DA
:1031300004ED00E0002808D0002141600160C1607A
:1031400000231A46194601F015BC704770B51D469C
:10315000049C00290BD02260E063216401212046F9
:1031600001F0B2FB84F850500020A06470BD2460D0
:10317000F2E700002DE9F047DDE908580A9C814696
:103180000E4617469A46B900A522206BFDF7CFFAE6
:10319000206B7F1E00EB870020F00707780705D023
:1031A00040F22B3219A11EA0FDF792F80020221840
:1031B000315C82F83410315C11B1401C1028F6D318
:1031C000002684F84360202D00D31F25E562E564C6
:1031D0002665201D00F0AFFE04F1180000F0ABFEE4
:1031E0002461C5F12000A0616462666584F85860BE
:1031F00052464946384600F063FB2060B8F1000FA4
:1032000001D0C8F80040BDE8F08700002E2E5C46D3
:1032100072656552544F535C7461736B732E630017
:103220004572726F723A25732C25640D0A000000F6
:1032300070B50024114D04EB840005EB800000F014
:103240006FFE641C202CF6D30D4800F069FE0C487C
:10325000143000F065FE0A48283000F061FE08488E
:103260003C3000F05DFE0648503000F059FE054845
:10327000034941631431816370BD0000800A00205E
:10328000000D0020B000002030B5134900E01146C9
:103290000A688242FBD34B685C18844203D14068C1
:1032A0001844486008460D6844682318AB420DD1A5
:1032B000094B103B1B689A4206D052682244426078
:1032C0000A681268026002E0036000E00260814266
:1032D00000D0086030BD00001C01002070B5002443
:1032E000416000610C4D91420AD8D11A8269914225
:1032F00001D301240EE0011D286900F01FFE09E042
:103300009A4203D2994201D3012403E0011DE868E7
:1033100000F014FE204670BDEC00002010B50446FD
:1033200000F030FEA06B20B1002400F067FE2046C4
:1033300010BD0124F9E710B5044600F023FEA06B90
:10334000E16B884201D1012400E0002400F056FE28
:10335000204610BD2DE9F3410F460098846C0026ED
:10336000002C05D140F6CE1216A11BA0FCF7B0FF31
:10337000A06BE16B884205D340F6CF1211A116A0D5
:10338000FCF7A6FFA06BE16B88420CD294F9455084
:103390003A4669462046FFF73FFE0646681C05D0C0
:1033A0006D1C84F845503046BDE8FC81606A0028F9
:1033B000F9D004F1240001F077FD0028F3D00126B4
:1033C000F1E700002E2E5C4672656552544F535C47
:1033D00071756575652E63004572726F723A25735B
:1033E0002C25640D0A000000F8B505460E4613486A
:1033F000C068C068C468201D00F080FDE069012835
:1034000016D1A0692B46411932462046FFF766FFC8
:1034100070B100200346014600902A46204601F084
:1034200041FE28B94FF4027205A10BA0FCF750FF32
:10343000616A01B02046BDE8F0400847EC0000207A
:103440002E2E5C4672656552544F535C74696D65EF
:1034500072732E63000000004572726F723A25731A
:103460002C25640D0A00000070B586B02F4E53E085
:103470000298002803DADDE90320059990470298B5
:10348000002849DB049C606910B1201D00F036FD66
:1034900001A800F0A9F8054602980A283CD2DFE806
:1034A00000F00505053B273805053B270398A16972
:1034B000034601442A462046FFF710FF00282BD080
:1034C000616A20468847E069012825D100200090E4
:1034D0000398A169002342181946204601F0E2FD35
:1034E000D0B940F2213212A117A0FCF7F1FE13E08F
:1034F0000398A06128B94FF44E720DA112A0FCF7F9
:10350000E7FEA0692B4641192A462046FFF7E6FE52
:1035100002E0204600F0A6FD00231A4602A930680A
:1035200001F002F90028A3D106B070BDEC00002024
:103530002E2E5C4672656552544F535C74696D65FE
:1035400072732E63000000004572726F723A257329
:103550002C25640D0A000000F8B506460D4601F062
:103560000DF8684600F040F80446009810B101F0EC
:10357000E9FCF8BD45B9A64206D801F0E3FC2146B6
:103580003046FFF731FFF8BD0C481DB101690968ED
:1035900091B10025311B2A46006800F019FE01F0A8
:1035A000D1FC0028EFD106494FF080500860BFF3EE
:1035B0004F8FBFF36F8FF8BD0125EBE7EC000020C4
:1035C00004ED00E00748416B0968002905D0416B14
:1035D000C968C9684968816270474FF0FF318162EC
:1035E00070470000B000002070B5054601F086FB72
:1035F0000446074EB068844204D200F00BF8012064
:10360000286001E000202860B460204670BD000002
:10361000EC000020F8B5184E25E0C0680568C468C5
:10362000201D00F06BFC616A20468847E069012894
:1036300019D1A0692844A84206D960602461211DDF
:10364000F06800F07BFC0EE000200346014600908D
:103650002A46204601F026FD28B940F2923207A101
:103660000CA0FCF735FEF06801680029D5D1F068A0
:103670003169F1603061F8BDEC0000202E2E5C460F
:1036800072656552544F535C74696D6572732E6335
:10369000000000004572726F723A25732C25640D8C
:1036A0000A00000008484068401C04D0F42207A12A
:1036B00011A0FCF70DFE502080F31188BFF34F8F4F
:1036C000BFF36F8FFEE70000000100202E2E5C4646
:1036D00072656552544F535C706F727461626C65B1
:1036E0005C525644535C41524D5F434D335C706FA6
:1036F00072742E63000000004572726F723A257377
:103700002C25640D0A00000008B56846FFF7C6FCCA
:103710000099FFF721FFFFF7A7FEF6E72DE9F0413B
:10372000044600F02FFC94F9455004F1240613E000
:10373000A06C38B100212046FFF70CFE50B100F01C
:1037400009FE07E0606A48B1304601F0ADFB08B100
:1037500000F000FE6D1E6DB2002DE9DC4FF0FF366B
:1037600084F8456000F04AFC00F00CFC94F94450E9
:1037700004F1100709E0206948B1384601F094FBD4
:1037800008B100F0E7FD6D1E6DB2002DF3DC84F88A
:103790004460BDE8F04100F031BC00002DE9F0418B
:1037A0000546002600F0EAFE304F386808B9FFF7FA
:1037B00087FCF86805424BD175B1083568070BD016
:1037C00005F00700C0F108000544680704D0BF22D7
:1037D00027A131A0FCF77CFD002D39D07868854207
:1037E00036D8224910310846046801E021460446D3
:1037F0006068A84202D220680028F7D13868844265
:1038000026D00E680836206808606068401B1028C3
:1038100011D904EB05085FEA487004D0EC2214A12A
:103820001DA0FCF755FD6068401BC8F804006560EA
:103830004046FFF729FD61687868401A7860BA68E9
:10384000904200D2B860F8680143616000202060B7
:1038500001F078FB700705D04FF4967204A10EA01A
:10386000FCF736FD3046BDE8F08100000C01002079
:103870002E2E5C4672656552544F535C706F7274A5
:1038800061626C655C4D656D4D616E675C6865611C
:10389000705F342E630000004572726F723A2573B8
:1038A0002C25640D0A00000004490868002803D094
:1038B0000868026D521C026508687047B00000205D
:1038C00020384FF08073C36121F00101816102490A
:1038D000416140F820297047A5360008827800230E
:1038E0008A4201D1C3707047C278521CD2B2C270F2
:1038F000032AF8D38170C370704700007CB500F0D4
:1039000041FB28480324CDE900400023802226A162
:10391000284801F0B5F923480023001DCDE90040F7
:10392000802225A1274801F0ABF91E480225083066
:10393000CDE900500023802223A1264801F0A0F900
:10394000184800230C30CDE90040402222A1254830
:1039500001F096F9134804211030CDE9001000233E
:10396000802221A1234801F08BF90E480023143056
:10397000CDE90050402220A1224801F081F9012028
:1039800000F094FE0749091FC86130B1002000F023
:103990007BFCBDE87C4000F031BB1BA0FCF798FC31
:1039A000FEE70000040000207465737430315F741A
:1039B00061736B00253A00087465737430325F746C
:1039C00061736B004D3A00087465737430335F7433
:1039D00061736B005D3D00087465737430345F740F
:1039E00061736B007D3D00087465737430355F74DE
:1039F00061736B007D3E00087465737430365F74CC
:103A000061736B00D13E00087853656D6170686F1B
:103A100072654372656174654D757465784572723F
:103A20000D0A0000084C4FF47A7507E0012100E010
:103A30000021C4F8A0112846FFF788F9D4F8A01196
:103A40000029F5D1F2E70000000021428CB04FF6CA
:103A5000FF773846FDF796FF8F48802300210090BE
:103A60001A460846FEF7B8FA40F6B830FFF76EF986
:103A70003846FDF787FF89A0002200903B4611469B
:103A80001046FEF747F888A04FF4784500903B4673
:103A90002A4628210020FDF78DFF85A100913B4695
:103AA0002A4638210020FDF785FF83A100913B467F
:103AB0002A4648210020FDF77DFF81A100913B4669
:103AC0002A4658210020FDF775FF7FA000903B4655
:103AD0002A4668210020FDF76DFF7DA000903B463F
:103AE0002A4668214420FDF765FFDFF8ECA1DFF8E6
:103AF000EC91DFF8EC817B4D00235A1E1946E869F2
:103B000000F012FE012816D1774881788DF82A102E
:103B1000C1788DF82B1001788DF8281090F805B039
:103B2000067AC4889AF80000099000231A461946BC
:103B3000E86900F01FFF98F8000050B19AF8000003
:103B4000864203D2012089F8000002E0002089F8B3
:103B5000000066A101A8099AFCF7C6FB01AD3B462F
:103B60001F22002160200095FDF724FF9DF82B30D7
:103B70009DF82A205EA101A8FCF7B6FB3B461F2258
:103B8000282130200095FDF715FF9DF8282057A12A
:103B900001A8FCF7A9FB3B461F22382130200095E5
:103BA000FDF708FF42F21070844206D323465A46BE
:103BB00051A101A8FCF798FB0EE0642C06D2234625
:103BC0005A464FA101A8FCF78FFB05E023465A4651
:103BD0004EA101A8FCF788FB3B461F22482130205C
:103BE0000095FDF7E7FE324640A101A8FCF77CFBFB
:103BF0003B461F22582130200095FDF7DBFE45484B
:103C0000007848B144A000904FF4FC633A46182174
:103C10000020FDF7CFFE08E044A000904FF4784369
:103C20003A4618210020FDF7C5FE99F8000060B162
:103C300043A000903B461F2268216620FDF7BAFE94
:103C400002214048FDF73AFE0BE03FA000903B46C2
:103C50001F2268216620FDF7ADFE02213948FDF7DD
:103C60002FFE98F8000040B138A000903B461F227C
:103C700068212220FDF79EFE07E036A000903B461B
:103C80001F2268212220FDF795FEFEF719FC4FF454
:103C90007A70FFF75BF82EE76C510008BBB6D3AD26
:103CA000CAB9D3C300000000CEC2B6C83A000000B3
:103CB000CAAAB6C83A000000B9E2D5D53A00000059
:103CC000CDC1C8C03A000000C4A3CABD00000000B6
:103CD000CBAEB1C30000000037000020350000204B
:103CE00034000020000000206C010020256420002A
:103CF00025642E25642020002564402575000000E1
:103D000025644025752020202000000025644025E2
:103D10007520200036000020202020436F6E6E6545
:103D20006374656420202020000000002020446986
:103D300073636F6E6E65637465642020000000001D
:103D4000BFAA0000000C0140B9D80000D7D4B6AF1C
:103D500000000000CAD6B6AF000000004FF4FA75AC
:103D6000054C04E0FDF7D6FB2846FEF7EFFF21786F
:103D70000029F9D0F6E700003600002000240025D5
:103D8000DFF8E080DFF8E090DFF8E0A0DFF8E0B0F7
:103D9000384F394E4FF400714046FDF788FD3870BA
:103DA0004FF480714046FDF782FD3070397831481C
:103DB000FFF794FD31783048FFF790FD72788AB9AB
:103DC000B07801280ED1B87860B999F800005F2862
:103DD00003D2401D89F8000002E0642089F8000049
:103DE00001240125797889B9B87801280ED1B078F5
:103DF00060B999F80000052803D9401F89F8000030
:103E000002E0002089F8000001240125C5B949B964
:103E1000B878012806D12CB99AF8000020B100200A
:103E20008AF8000012B10BE00120F9E7B078012810
:103E300006D12CB99BF8000030B100208BF80000AF
:103E4000B878012802D005E00120F7E7B178012910
:103E500000D100257870B078707000240A20FEF739
:103E600075FF97E700100140370000203400002064
:103E7000350000209A0000209E000020124D134CB7
:103E80004FF47A764FF0FF3714E01048FEF7B0FA9F
:103E9000FEF76EF96071FEF739F9E080FEF788FBF6
:103EA000207200231A461946E86900F063FD304687
:103EB000FEF74CFF00233A461946E86900F034FC4F
:103EC0000128F4D1E1E70000000000206C0100208F
:103ED000084C0025084E09E0C0F30E003554064892
:103EE000FDF7C6F925803220FEF730FF2088010457
:103EF000F9D5F1E798000020400600200169D0E9DB
:103F000001329A60D0E901235A604A68824201D1A5
:103F100082684A60002202610868401E086070479B
:103F200000F1080141604FF0FF328260C160016121
:103F300000210160704700210161704730B50C68B5
:103F4000621C02D000F1080202E0026904E01A4695
:103F500053681D68A542FAD953684B6099608A601E
:103F6000516008610168491C016030BD42684A60C7
:103F700093688B6093685960916008610168491C7F
:103F800001607047502080F31188BFF34F8FBFF35B
:103F90006F8F09494868401C486001280AD10748CA
:103FA000006810F0FF0F05D04FF4BD7204A10FA000
:103FB000FCF78EB9704700000001002004ED00E01E
:103FC0002E2E5C4672656552544F535C706F72744E
:103FD00061626C655C525644535C41524D5F434D87
:103FE000335C706F72742E63000000004572726F54
:103FF000723A25732C25640D0A00000010B5094C97
:104000006068002805D140F2811207A111A0FCF7D9
:104010005FF96068401E6060002801D180F311885C
:1040200010BD0000000100202E2E5C467265655216
:10403000544F535C706F727461626C655C5256448D
:10404000535C41524D5F434D335C706F72742E630D
:10405000000000004572726F723A25732C25640DC2
:104060000A00000070B500282AD008380446154D13
:104070006068E968084205D14FF4A07212A11CA043
:10408000FCF726F9206828B140F241120EA118A0D1
:10409000FCF71EF96068E968084211D02268002A1E
:1040A0000ED18843606000F069FA6068696808446E
:1040B00068602046FFF7E8F8BDE8704000F042BFB6
:1040C00070BD00000C0100202E2E5C46726565520A
:1040D000544F535C706F727461626C655C4D656DBA
:1040E0004D616E675C686561705F342E630000002F
:1040F0004572726F723A25732C25640D0A00000018
:1041000006484FF47A710068B0FBF1F14FF0E020FF
:10411000491E416107210161704700002000002015
:1041200010B5FCF7AFF8104C10280CD300F1E020CC
:1041300090F8F0032178884205D24FF42A720BA13F
:1041400015A0FCF7C5F818480068A16800F4E06005
:10415000884207D9BDE810404FF42E7203A10EA08B
:10416000FCF7B6B810BD0000000100202E2E5C4602
:1041700072656552544F535C706F727461626C6506
:104180005C525644535C41524D5F434D335C706FFB
:1041900072742E63000000004572726F723A2573CC
:1041A0002C25640D0A0000000CED00E010B5002283
:1041B000064B53F832401CB1521C082AF9D310BDEB
:1041C00043F8321003EBC201486010BD400A0020E2
:1041D00070B504460D461646FFF7D4FE94F94430F8
:1041E0004FF000005B1C01D184F8440094F94510A5
:1041F000491C01D184F84500FFF700FFA06B28B9E6
:104200003246294604F1240000F0D6F82046BDE8E5
:104210007040FFF783BA000010B504460020002C60
:1042200010D00E48006B28B140F2CF420CA111A073
:10423000FCF74EF800F0A2F900212046FEF708FE38
:1042400000F080FE002807D10E494FF08050086032
:10425000BFF34F8FBFF36F8F10BD0000B000002081
:104260002E2E5C4672656552544F535C7461736BBD
:10427000732E63004572726F723A25732C25640D9C
:104280000A00000004ED00E070B50446FFF77AFE76
:10429000234D04B92C68201DFFF730FE58B9E06AA1
:1042A000204A00EB800152F8211021B90121814000
:1042B000286988432861A06A18B104F11800FFF743
:1042C0001DFE686A401C68622868844207D1211D6F
:1042D0001548FFF74BFE6868401C686007E0A86857
:1042E000401EA8602046FEF7CEFEFFF76BF9FFF7F1
:1042F00085FE6869002812D0286884420FD1286B97
:1043000028B140F2654209A10DA0FBF7E1FF104979
:104310004FF080500860BFF34F8FBFF36F8F70BDB9
:10432000B0000020800A00203C0D00202E2E5C46AC
:1043300072656552544F535C7461736B732E6300E6
:104340004572726F723A25732C25640D0A000000C5
:1043500004ED00E001490120C8617047B000002071
:1043600070B504460D46002C05D140F6063208A172
:104370000CA0FBF7ADFF0F48016820461831FFF78E
:10438000DDFD2846BDE870400121FEF761BD00005B
:104390002E2E5C4672656552544F535C7461736B8C
:1043A000732E63004572726F723A25732C25640D6B
:1043B0000A000000B000002070B506460D46144605
:1043C000002E05D140F6313209A10EA0FBF780FF87
:1043D0001048016830461831FFF7C8FD0CB14FF0A6
:1043E000FF3521462846BDE87040FEF731BD00008C
:1043F0002E2E5C4672656552544F535C7461736B2C
:10440000732E63004572726F723A25732C25640D0A
:104410000A000000B000002070B50446002839D022
:104420001D4DE06A2968C96A884233D2A069002814
:1044300004DB2868C06AC0F12000A061E06A174E62
:1044400000EB8000616906EB800081421FD1201DD6
:10445000FFF754FD012150B9E06A00EB800256F8E5
:10446000222022B92A6901FA00F082432A612868D1
:10447000C06AE0622A6981401143296100EB800033
:1044800006EB8000211DBDE87040FFF76FBD286876
:10449000C06AE06270BD0000B0000020800A002009
:1044A00010B50446002C05D140F6C13204A109A084
:1044B000FBF70EFF0B48016A2160C068606010BD09
:1044C0002E2E5C4672656552544F535C7461736B5B
:1044D000732E63004572726F723A25732C25640D3A
:1044E0000A000000B00000201CB517480024CDE9E8
:1044F00000402346822215A1164800F0C1FB012886
:1045000001D100F095FD01280AD0401C1BD102B05A
:1045100040F28472BDE810400FA114A0FBF7D8BE92
:10452000502080F31188BFF34F8FBFF36F8F064881
:104530004FF0FF312C38816201214161C460BDE838
:104540001C4000F063B81CBDDC00002049444C4511
:10455000000000000D3100082E2E5C467265655289
:10456000544F535C7461736B732E63004572726FAA
:10457000723A25732C25640D0A0000000248016B75
:10458000491C016370470000B000002070B5144D55
:10459000286B002802D00120E86170BD0020E8618E
:1045A0002869B0FA80F0C0F11F000E4E00EB8004C5
:1045B00056F8240028B940F6F6220BA10FA0FBF70D
:1045C00087FE06EB840041684968416000F10802FB
:1045D000914201D1496841604068C068286070BD5F
:1045E000B0000020800A00202E2E5C4672656552C5
:1045F000544F535C7461736B732E63004572726F1A
:10460000723A25732C25640D0A0000001CB5194967
:1046100008780190FF200870087800909DF800004D
:10462000154A00F0500010700720906006E0906876
:10463000401E90609DF80000400000909DF8000032
:104640000006F4D4107A000200F4E0609060019853
:1046500008700A48016841F470010160016841F086
:1046600070410160FFF74CFD00205060FBF7D4FD66
:1046700000201CBD00E400E00001002020ED00E06F
:1046800010B5502080F31188BFF34F8FBFF36F8FA9
:1046900000F03AFB18B104494FF080500860002048
:1046A00080F3118810BD000004ED00E010B5024653
:1046B0000021012000F006F804462046FEF73AFDEE
:1046C000204610BDF8B505460E461746002D05D10B
:1046D0004FF4C4720BA110A0FBF7FAFD86B105FBE5
:1046E00006F05430FFF75AF804463CB104F1540286
:1046F0003B46314628460094FEF728FD2046F8BD8B
:104700000020EEE72E2E5C4672656552544F535CD6
:1047100071756575652E63004572726F723A257307
:104720002C25640D0A0000002DE9FF4F83B00446DC
:104730008A469B460026002C05D140F2DC4258A157
:104740005CA0FBF7C5FDBAF1000F07D1206C28B1C2
:1047500040F2DD4252A157A0FBF7BAFD00F0C0FACB
:1047600038B9059828B14FF49C624DA151A0FBF7D0
:10477000AFFD4FF000094FF08057DFF84881FFF799
:1047800001FCA56B95B3E66851462046FEF730FC68
:10479000BBF1000F13D0E660606A50B104F1240051
:1047A00000F082FB28B1C8F80070BFF34F8FBFF351
:1047B0006F8FFFF723FC012007B0BDE8F08F6D1E5F
:1047C000A563206810B9FFF76FF8606020690028C2
:1047D000EFD004F1100000F067FB0028E9D0C8F822
:1047E0000070BFF34F8FBFF36F8FE2E7FFE70598CD
:1047F00008B126B107E0FFF701FC0020DCE701A8C3
:10480000FFF74EFE0126FFF7F9FBFFF7B7FEFFF7B4
:10481000B9FB94F94400401C01D184F8449094F908
:104820004500401C01D184F84590FFF7E7FB05A93E
:1048300001A800F0DDF958B12046FEF76FFF00F047
:1048400081FB2046FEF76AFD002898D00020B3E7E0
:104850002046FEF763FDE0B1206830B9FFF792FB18
:104860006068FFF7D9FDFFF7C9FB04F12400059943
:10487000FFF776FD2046FEF751FF00F063FB0028AE
:104880007FF47DAFC8F80070BFF34F8FBFF36F8F19
:1048900075E72046FEF742FF00F054FB6FE700008B
:1048A0002E2E5C4672656552544F535C717565756A
:1048B000652E63004572726F723A25732C25640D64
:1048C0000A00000004ED00E070B504460D46002C1F
:1048D00005D140F21B121DA121A0FBF7F9FCFFF747
:1048E00051FBD4E90F20216802FB00116160002117
:1048F000A1632168A160E06B2268216C401E00FB6F
:104900000121E1604FF0FF3084F8440084F8450055
:1049100004F110004DB1FFF703FB04F12400FFF791
:10492000FFFAFFF76BFB012070BD21690029F8D069
:1049300000F0BAFA0028F4D00D494FF0805008601A
:10494000BFF34F8FBFF36F8FEBE700002E2E5C4657
:1049500072656552544F535C71756575652E6300C1
:104960004572726F723A25732C25640D0A0000009F
:1049700004ED00E02DE9FF4782B004468A469846E0
:104980000025002C05D140F2D92254A158A0FBF7F4
:104990009FFCBAF1000F07D1206C28B140F2DA2257
:1049A0004EA153A0FBF794FCB8F1020F08D1E06BC5
:1049B000012805D040F2DB2248A14DA0FBF788FC7E
:1049C00000F08EF938B9049828B140F2DE2243A1F4
:1049D00047A0FBF77DFC4FF000094FF08056484F91
:1049E000FFF7D0FAA06BE16B884206D3B8F1020F53
:1049F00003D0049860B37DB333E04246514620466D
:104A0000FEF70AFBA16C51B141462046FEF7A2FC1D
:104A1000C0B13E60BFF34F8FBFF36F8F12E0616A8A
:104A200051B104F1240000F03FFA58B13E60BFF3E9
:104A30004F8FBFF36F8F05E020B13E60BFF34F8F04
:104A4000BFF36F8FFFF7DAFA012006B0BDE8F087F9
:104A5000FFF7D4FA0020F8E7FFE76846FFF720FDEC
:104A60000125FFF7CBFAFFF789FDFFF78BFA94F9E1
:104A70004400401C01D184F8449094F94500401C46
:104A800001D184F84590FFF7B9FA04A9684600F00F
:104A9000AFF830B12046FEF741FE00F053FA002097
:104AA000D3E72046FEF747FC88B104F110000499D3
:104AB000FFF756FC2046FEF731FE00F043FA0028CF
:104AC0008ED13E60BFF34F8FBFF36F8F88E72046D4
:104AD000FEF724FE00F036FA82E700002E2E5C4638
:104AE00072656552544F535C71756575652E630030
:104AF0004572726F723A25732C25640D0A0000000E
:104B000004ED00E02DE9F047044689461546984635
:104B1000002C05D140F29F322CA131A0FBF7D8FB2D
:104B2000B9F1000F07D1206C28B14FF4687227A1AA
:104B30002BA0FBF7CDFBB8F1020F08D1E06B0128E9
:104B400005D040F2A13221A125A0FBF7C1FBFFF760
:104B5000E7FA5020EFF3118780F31188BFF34F8FEE
:104B6000BFF36F8FA06BE16B884207D3B8F1020FE0
:104B700004D0002087F31188BDE8F08794F94560E0
:104B8000424649462046FEF747FA701C04D0761C80
:104B900084F845600120EDE7A06C012648B141464C
:104BA0002046FEF7D7FB0028F4D0002DF2D02E606F
:104BB000F0E7606A0028EDD004F1240000F074F9F9
:104BC0000028E7D0002DE5D02E60E3E72E2E5C46CE
:104BD00072656552544F535C71756575652E63003F
:104BE0004572726F723A25732C25640D0A0000001D
:104BF00070B504460D46002C05D140F6CB3216A107
:104C00001AA0FBF765FB2DB940F6CC3212A117A014
:104C1000FBF75EFBFFF7B6F9184AD06829684B1C12
:104C200008D02368126A934206D06268824203D891
:104C300001240DE000240BE06268801A884206D24D
:104C4000081A28602046FFF72BFC002400E001240E
:104C5000FFF7D4F9204670BD2E2E5C467265655272
:104C6000544F535C7461736B732E63004572726FA3
:104C7000723A25732C25640D0A000000B000002054
:104C80002DE9FF5F8146DDE90E788A4616469B4690
:104C9000B000FEF783FD054628000AD05C20FEF731
:104CA0007DFD04460CB1256304E02846FFF7DAF9E0
:104CB00000E000248CB10020CDE90240CDE900786D
:104CC0005B46324651464846FEF754FA2046FEF708
:104CD000F7F8012004B0BDE8F09F4FF0FF30F9E78E
:104CE00005484169002903D0006B18B100207047C6
:104CF0000120704702207047B00000200148C068C2
:104D000070470000B00000202DE9F04100262E4F32
:104D1000386B002808D0B869401CB861F86900B148
:104D200001263046BDE8F081FD686D1CFD608DB93F
:104D3000786B006828B140F6D91224A128A0FBF7AF
:104D4000C7FA786BB96B7963B863386A401C38620C
:104D5000FEF738FCB86ADFF8988085420DD3786B8F
:104D6000006838B1786BC068C468606885420ED24C
:104D7000B86202E04FF0FF30B8623868C06A00EBFA
:104D8000800058F820000128C8D90126C6E7201D58
:104D9000FFF7B4F8A06A18B104F11800FFF7AEF8F5
:104DA000E06A01213A6981401143396100EB8000DA
:104DB00008EB8000211DFFF7D9F8E06A3968C96A5D
:104DC0008842CCD30126CAE7B00000202E2E5C46D4
:104DD00072656552544F535C7461736B732E63003C
:104DE0004572726F723A25732C25640D0A0000001B
:104DF000800A002070B50446002600283CD01F4DD4
:104E00002868844205D040F6C7621DA121A0FBF7A7
:104E10005FFA206D28B940F6C96219A11DA0FBF701
:104E200057FA206D401E2065E26CE16A914223D062
:104E300010BB201DFFF762F81A4A012150B9E06A41
:104E400000EB800352F8233023B92B6901FA00F0FC
:104E500083432B61E06CE062C0F12000A061E06A56
:104E60002B6981401943296100EB800002EB80002F
:104E7000211DFFF77BF80126304670BDB0000020F1
:104E80002E2E5C4672656552544F535C7461736B91
:104E9000732E63004572726F723A25732C25640D70
:104EA0000A000000800A00202DE9F041C068C468B3
:104EB000002C05D140F6613216A11BA0FBF708FAC1
:104EC00004F118000746FFF719F81B4D2A6B01265D
:104ED00062B139461948FFF749F8E06A2968C96A9A
:104EE000884215D90120EE61BDE8F081201DFFF751
:104EF00005F8E06A2A6906FA00F1114329611049B0
:104F000000EB800001EB8000211DFFF72FF8E4E7A4
:104F10000020E9E72E2E5C4672656552544F535CC3
:104F20007461736B732E63004572726F723A2573EE
:104F30002C25640D0A000000B0000020280D002080
:104F4000800A00202DE9F041002400272B4D286B1A
:104F5000002805D14FF4FD6229A12EA0FBF7B8F976
:104F6000FFF710F8286B401E2863286BF0BBA86879
:104F7000E0B3DFF8B08001261DE0D8F80C00C4686B
:104F800004F11800FEF7BAFF201DFEF7B7FFE06A34
:104F90002A6906FA00F111432961234900EB8000D8
:104FA00001EB8000211DFEF7E1FFE06A2968C96A74
:104FB000884200D3EE61D8F800000028DDD10CB1A2
:104FC000FEF700FBAC6944B1FFF79EFE00B1EE6155
:104FD000641E002CF8D10020A861E86930B10127D7
:104FE000124938070860BFF34F8F00E001E0BFF3BC
:104FF0006F8FFFF703F83846BDE8F081B00000205E
:105000002E2E5C4672656552544F535C7461736B0F
:10501000732E63004572726F723A25732C25640DEE
:105020000A000000280D0020800A002004ED00E0A6
:105030001CB50024FDF78AFF0C48006860B10B48DE
:105040001F21001DCDE9001000234FF4827208A13A
:105050000948FFF715FE04462CB940F2331207A1A8
:105060000CA0FBF735F920461CBD0000EC00002029
:10507000546D722053766300093700082E2E5C466B
:1050800072656552544F535C74696D6572732E631B
:10509000000000004572726F723A25732C25640D72
:1050A0000A0000002DE9FF47DDF830A005460E4656
:1050B000904699460027002D05D14FF4D37215A1D3
:1050C0001AA0FBF705F91D4C2068F8B10096CDF841
:1050D00004800295062E13DAFFF702FE022807D09D
:1050E00000231A4669462068FFF744FC07460DE096
:1050F0000023524669462068FFF73CFC074605E05E
:1051000000234A466946FFF7FDFC074604B03846CF
:10511000BDE8F0872E2E5C4672656552544F535C95
:1051200074696D6572732E63000000004572726FC2
:10513000723A25732C25640D0A000000EC00002053
:1051400010B500290AD00878002807D0054878440F
:10515000FBF7EAFC002801D0002010BD024878448B
:1051600010BD00005A960000529600000110011870
:10517000C9692F9B4EAA2EAA6FAA6FAA6FAA6FAAFF
:105180006FAA6FAA4FB26FAA6FAA8FAA8EAA6EB229
:105190004EA2AE9A2751010800000110EE821BFEBC
:1051A0007AFD5AFD9AFD9AFD9AFD9AFD9AFD9AFDA7
:1051B0009AFD9AFD9AFD9AFD9AFD9AFD9AFD9AFD37
:1051C0009AFD9AFDBAF59AFD9AFD79FD59F579F5A2
:1051D00079F579F599FD99F599F578ED9AFD9AFDAE
:1051E0009AFD9AFD9AFD9AFD9AFD9AFD9AFD9AFD07
:1051F0009AFD9AFD9AFD9AFD59F59AFD9AFD9AFD40
:10520000F6CC000800000008E4306749001041189F
:105210004110000082187EFFFFFFFFFFFFFFFFFF2E
:10522000FFFFFFFFFFFFFFFFFFFFFFFFFFFFFFFF8E
:10523000FFFFFFFFFFFFFFFFFFFFFFFFFFFFFFFF7E
:10524000FFFFFFFFFFFFFFFFFFFFFFFFFFFFFFFF6E
:10525000FFFFFFFFFFFFFFFFFFFFFFFFFFFFFFFF5E
:10526000FFFFFFFFFFFFFFFFFFFFDFFFEE9A6D92E3
:10527000AEA28EA24EAA6FAA6FAA6FAA6FAA6FAA39
:105280006FAA6FAA4FB26FAA6FAA8FAA8EAAAEA2F8
:10529000CA690118000801084328B9E5FBFDDBFDD8
:1052A0009AFD9AFD9AFD9AFD9AFD9AFD9AFD9AFD46
:1052B0009AFD9AFD9AFD9AFD9AFD9AFD9AFD9AFD36
:1052C0009AFD9AFD7AFD9AFDBAFD99F55BFEFAED1D
:1052D000D9ED78DD78DDFAF5DAF5FAF5DAEDBAF53B
:1052E0009AFD7AFD9AFD9AFD9AFD9AFD9AFD9AFD26
:1052F0009AFD9AFD9AFD9AFDBAFD79F599E5DAFDD8
:10530000FBFDFBFDE428011062180008ED8AAC7A71
:105310004220001000000000F0839EFFFFFFFFFF0F
:10532000FFFFFFFFFFFFFFFFFFFFFFFFFFFFFFFF8D
:10533000FFFFFFFFFFFFFFFFFFFFFFFFFFFFFFFF7D
:10534000FFFFFFFFFFFFFFFFFFFFFFFFFFFFFFFF6D
:10535000FFFFFFFFFFFFFFFFFFFFFFFFFFFFFFFF5D
:10536000FFFFFFFFFFFFFFFFFFFFDFFF6EAA6EAA39
:105370006EAA6EAA6FAA6FAA6FAA6FAA6FAA6FAA67
:105380006FAA6FAA4FB26FAAB0B28FAA70A3A4304F
:10539000010800080008D1A399F5DAFD7AFD7AFD2D
:1053A0009AFD9AFD9AFD9AFD9AFD9AFD9AFD9AFD45
:1053B0009AFD9AFD9AFD9AFD9AFD9AFD9AFD9AFD35
:1053C0009AFD9AFD9AFDBAFD1AEE00100108000838
:1053D0000008000800000100000001104208011050
:1053E000A43016CD9AFD9AFD9AFD9AFDBAFDBAFD3C
:1053F00079F517ED47490110010842100110F19BA2
:10540000DAEDBAFDD9EDED82000800080010ED7A62
:105410001AEE32B44110000820088210FFFFFFFF8F
:10542000FFFFFFFFFFFFFFFFFFFFFFFFFFFFFFFF8C
:10543000FFFFFFFFFFFFFFFFFFFFFFFFFFFFFFFF7C
:10544000FFFFFFFFFFFFFFFFFFFFFFFFFFFFFFFF6C
:10545000FFFFFFFFFFFFFFFFFFFFFFFFFFFFFFFF5C
:10546000FFFFFFFFFFFFFFFFFFFFFFFF4EB26EAA30
:105470006EAA6EAA6FAA6FAA6FAA6FAA6FAA6FAA66
:105480006FAA6FAA4FB26FAA4EA2CC91000821005A
:10549000000083207CFE59FDF8F4BAFD9AFD7AFDE8
:1054A0007AFD5AFD9AFD9AFD9AFD9AFD9AFD9AFDA4
:1054B0009AFD9AFD9AFD9AFD9AFD9AFD9AFD9AFD34
:1054C0009AFD9AFD79F5B9E5000800000000210079
:1054D0000000000000084328A5404C82AE9A30A38B
:1054E00099EDD6D479FD9AFD9AFD9AFDBAFDBAFDE3
:1054F000BAFD58F58D8A2B72E538011001100100B4
:1055000083201BF6BAFD78ED36CD0110200000088F
:105510000A72B9FD3BFE06490008000000009EF734
:10552000FFFFFFFFFFFFFFFFFFFFFFFFFFFFFFFF8B
:10553000FFFFFFFFFFFFFFFFFFFFFFFFFFFFFFFF7B
:10554000FFFFFFFFFFFFFFFFFFFFFFFFFFFFFFFF6B
:10555000FFFFFFFFFFFFFFFFFFFFFFFFFFFFFFFF5B
:10556000FFFFFFFFFFFFFFFFFFFFFFFF6FAA6FAA15
:105570006FAA6FAA6FAA6FAA6FAA6FAA6FAA6FAA63
:105580008FAA8FAA8FB28EA2685900084100000826
:105590004F8BDAED9AFD9AFD9AFD9AFD9AFD9AFDE0
:1055A0009AFD9AFD9AFD9AFD9AFD9AFD9AFD9AFD43
:1055B0009AFD9AFD9AFD9AFD9AFD9AFD7AFD5AFD93
:1055C0009AFD9AFDB8ED00080000000000080110E7
:1055D00022188C6ACFAA8EA2AEA2AEA259FD79F58E
:1055E000BAFDDAFD1BF64C8ABAFD9AFD9AFD9AFDCA
:1055F0009AFD9AFD6D9A71BB6DA28EA2CA710110BF
:10560000010800089CFE1BFEFBFDFAF56318000074
:1056100021080639D9ED78EDAC7A000800080000C1
:10562000FFFFFFFFFFFFFFFFFFFFFFFFFFFFFFFF8A
:10563000FFFFFFFFFFFFFFFFFFFFFFFFFFFFFFFF7A
:10564000FFFFFFFFFFFFFFFFFFFFFFFFFFFFFFFF6A
:10565000FFFFFFFFFFFFFFFFFFFFFFFFFFFFFFFF5A
:10566000FFFFFFFFFFFFFFFFFFFFDFFF6FAA6FAA34
:105670006FAA6FAA6FAA6FAA6FAA6FAA6FAA6FAA62
:105680004FB24FB2AE9A2328010800000118B9E5C5
:105690003CFE79F579FD79FD9AFD9AFD9AFD9AFD1A
:1056A0009AFD9AFD9AFD9AFD9AFD9AFD9AFD9AFD42
:1056B0009AFD9AFD9AFD9AFD9AFD9AFD9AFD7AFD52
:1056C00079F598E500080000000000086438CE92E3
:1056D0006EA2AFB26D9ACFAA59F579FD9AFD9AFDE7
:1056E000BAFDDAFD686179EDBAFD9AFD9AFD9AFD81
:1056F0009AFD9AFD58EDAA7171AB8D8A2DA2CE9AB2
:105700006751001000083BFE79F579FD3BFE432808
:1057100000004108E438B8E557ED13C4000800085C
:105720002000FFFFFFFFFFFFFFFFFFFFFFFFFFFF67
:10573000FFFFFFFFFFFFFFFFFFFFFFFFFFFFFFFF79
:10574000FFFFFFFFFFFFFFFFFFFFFFFFFFFFFFFF69
:10575000FFFFFFFFFFFFFFFFFFFFFFFFFFFFFFFF59
:10576000FFFFFFFFFFFFFFFFFFFFDFFF6FAA6FAA33
:105770006FAA6FAA6FAA6FAA6FAA6FAA6FAA6FAA61
:105780004EA22D9A011800000000C951FBFD79F5C9
:105790009AFD9AFD9AFD9AFD9AFD9AFD9AFD9AFD51
:1057A0009AFD9AFD9AFD9AFD9AFD9AFD9AFD9AFD41
:1057B0009AFD9AFD9AFD9AFD9AFD9AFD9AFD9AFD31
:1057C000FAF501180000000000104B828EA28EA294
:1057D000CFBA4EAA38F5BAFD9AFD9AFD7AFD9AFD28
:1057E000BAFDD6DCEA7158EDBAFD9AFD9AFD9AFD34
:1057F0009AFD9AFD79F5FAFD485994BC10BBAFAA01
:105800006D924C7A00106328DAF5DBFDFBFDFBFDA1
:105810006330000000088741B9ED59FD15C5000847
:1058200000002000FFFFFFFFFFFFFFFFFFFFFFFF64
:10583000FFFFFFFFFFFFFFFFFFFFFFFFFFFFFFFF78
:10584000FFFFFFFFFFFFFFFFFFFFFFFFFFFFFFFF68
:10585000FFFFFFFFFFFFFFFFFFFFFFFFFFFFFFFF58
:10586000FFFFFFFFFFFFFFFFFFFFFFFF6FAA6FAA12
:105870006FAA6FAA6FAA6FAA6FAA6FAA4FB28FA260
:10588000EB710118010041008B6AFBFDBAF5BAF516
:105890009AFD9AFD9AFD9AFD9AFD9AFD9AFD9AFD50
:1058A0009AFD9AFD9AFD9AFD9AFD9AFD9AFD9AFD40
:1058B0009AFD9AFD9AFD9AFD9AFD9AFD9AFD9AFD30
:1058C00043300108000042184B828EAA6EAA8EA2B5
:1058D000F3C31BFE9AFDBAFD9AFD9AFD7AFD9AFD6F
:1058E000BAFD07613BFEFAFDBAFD9AFD9AFD9AFDED
:1058F0009AFD9AFD7AFD99FD1BFEEA6999ED96E401
:10590000AFAAAE9AEE8A0218AC7AB9F599F59AFD6B
:10591000DAF5064100002000095AB9F5B8E52D83F3
:1059200000000000494A9EF7FFFFFFFFFFFFFFFF57
:10593000FFFFFFFFFFFFFFFFFFFFFFFFFFFFFFFF77
:10594000FFFFFFFFFFFFFFFFFFFFFFFFFFFFFFFF67
:10595000FFFFFFFFFFFFFFFFFFFFFFFFFFFFFFFF57
:10596000FFFFFFFFFFFFFFFFFFFFFFFF6FAA6FAA11
:105970006FAA6FAA8FA26FB24FB26FAAAEA2A9612F
:1059800001080008011094B4FAF599F59AFD9AFD02
:105990009AFD9AFD9AFD9AFD9AFD9AFD9AFD9AFD4F
:1059A0009AFD9AFD9AFD9AFD9AFD9AFD9AFD9AFD3F
:1059B0009AFD9AFD9AFD9AFD7AFD7AFD9AFDAD7ADF
:1059C0002110000001106D8A8EA26EAA6D9A38F522
:1059D0009AFD9AFD9AFD9AFD9AFD9AFD7AFD9AFD2F
:1059E00078E553B49AFD9AFD9AFD9AFD9AFD9AFDC9
:1059F0009AFD9AFD9AFD9AFD79FDBAFDCB81BAFD1B
:105A000017EDAEA28EAA6D9202303AE6DAFD79F574
:105A1000DAFDFBFD01100000221091AB57E5D9F52E
:105A20000539410000003CE7FFFFFFFFFFFFFFFFDC
:105A3000FFFFFFFFFFFFFFFFFFFFFFFFFFFFFFFF76
:105A4000FFFFFFFFFFFFFFFFFFFFFFFFFFFFFFFF66
:105A5000FFFFFFFFFFFFFFFFFFFFFFFFFFFFFFFF56
:105A6000FFFFFFFFFFFFFFFFFFFFFFFF6FAA6FAA10
:105A70006FAA6FAA6FB24FB26FB28FA268510110B6
:105A80000000011058DDFBFDBAFD39FD9AFD9AFDBD
:105A90009AFD9AFD9AFD9AFD9AFD9AFD9AFD9AFD4E
:105AA0009AFD9AFD9AFD9AFD9AFD9AFD9AFD9AFD3E
:105AB0009AFD9AFD9AFD9AFD9AFD9AFD16C5621807
:105AC000000001104C7AAEA2AFB211C39AFD9AFD4C
:105AD0009AFD9AFD9AFD9AFD9AFD9AFD7AFD9AFD2E
